:020000040000FA
:10000000000000EB240000EB2C008FE2000C90E8D5
:1000100000A08AE000B08BE001704AE20B005AE1D8
:100020000000001A1C0000EB0F00BAE818E04FE2D5
:10003000010013E303F0471013FF2FE1EC01000070
:10004000FC0100000030B0E30040B0E30050B0E33A
:100050000060B0E3102052E27800A128FCFFFF8A84
:10006000822EB0E13000A128003081451EFF2FE133
:1000700001C08FE21CFF2FE11FB5059886460FBC1B
:10008000009C02B07047000001C08FE21CFF2FE10E
:1000900030B47546AE4630BC704700001A0000EB25
:1000A0000210A0E1F1FFFFEB1CC09FE50FC08CE048
:1000B00001001CE30DE08F120FE0A0011CFF2FE1F7
:1000C00001C08FE21CFF2FE100F050F81C0100007E
:1000D0007847C04603002DE9EAFFFFEB0300BDE8C7
:1000E000290000EB0C009FE50C109FE504209FE524
:1000F00008309FE51EFF2FE16000004060040040D3
:100100006000004070477047704700000E50A0E14B
:100110001A0000EB05E0A0E10050B0E10D10A0E1F5
:100120000A30A0E10700C0E300D0A0E160D08DE27A
:1001300020402DE9EAFFFFEB2040BDE80060A0E38E
:100140000070A0E30080A0E300B0A0E30710C1E3CB
:1001500005C0A0E1C009ACE8C009ACE8C009ACE842
:10016000C009ACE801D0A0E11EFF2FE110B50400EA
:10017000C046C0462000FFF7ABFF10BC08BC1847C4
:1001800000009FE51EFF2FE10000004001C08FE24C
:100190001CFF2FE101491820ABDFFEE7260002001B
:1001A0001EFF2FE10020A0E3050000EA0010A0E3FD
:1001B000000000EA011081E2530F51E3FCFFFFDA77
:1001C000012082E2000052E1F7FFFFBA1EFF2FE19B
:1001D0000000A0E344109FE5000081E5040081E5F4
:1001E000140081E50100A0E30017C1E1080081E5EA
:1001F000090000EA0100A0E324109FE5040081E566
:100200000500A0E3E6FFFFEB0100A0E310109FE56F
:100210000C0081E50500A0E3E1FFFFEBF4FFFFEA3E
:1002200000C002E0008002E0380200000000004050
:08023000E80400004400000096
:0400000500000000F7
:00000001FF
